:020000040000FA
:0400000034EF00F0E9
:060008005C8279ED19F0A5
:100018005C80D8CFB7F0E8CFB8F0E0CFB9F0D9CF4F
:10002800BAF0DACFBBF0F3CFBCF0F4CFBDF09EA0AE
:1000380020EF00F022EF00F024EF00F0EAEC19F0D6
:10004800BDC0F4FFBCC0F3FFBBC0DAFFBAC0D9FF24
:10005800B9C0E0FFB8C0E8FFB7C0D8FF5C90100097
:0400680038EF1BF062
:1010000000269E783EEEE9913E13CECC3EAAAA2A57
:101010003FD49A38B900B0B83F00D0C09EF0D1C0DC
:101020009FF0D2C0A0F0D3C0A1F04EC09EF04FC040
:101030009FF050C0A0F051C0A1F09EC0A6F09FC08C
:10104000A7F0A0C0A8F0A1C0A9F0000E00017D6F1C
:10105000000E7C6FA95109E1800EA85DD8A033EF86
:1010600008F035EF08F053EF08F0A6C052F0A7C023
:1010700053F0A8C054F0A9C055F0200E45EF08F079
:10108000D8905532543253325232E82E40EF08F0A5
:101090005250531054105510D8B451EF08F053EF7C
:1010A00008F015EF09F0D890A635526EA735536EAB
:1010B000A835546EA935556E525053105410551022
:1010C000D8A465EF08F067EF08F095EF08F0000E80
:1010D000356E000E366E800E376EBF0E386E4EC007
:1010E00008F04FC009F050C00AF051C00BF04EC0DC
:1010F00004F04FC005F050C006F051C007F09EEC60
:101100000EF004C039F005C03AF006C03BF007C04D
:101110003CF0A6EC12F035C04EF036C04FF037C0B0
:1011200050F038C051F03DEF0CF0A6C052F0A7C00F
:1011300053F0A8C054F0A9C055F0200EA5EF08F058
:10114000D8905532543253325232E82EA0EF08F084
:101150005250531054105510D8B4B1EF08F0B3EFFB
:1011600008F0E5EF08F0000ED56F210ED46F4EC0E9
:1011700031F04FC032F050C033F051C034F04EC0A7
:101180002DF04FC02EF050C02FF051C030F06FEC5A
:101190001BF02DC035F02EC036F02FC037F030C018
:1011A00038F0000E396E000E3A6E000E3B6E000EE7
:1011B0003C6EA6EC12F035C04EF036C04FF037C092
:1011C00050F038C051F03DEF0CF0E70E7C27FF0ED9
:1011D0007D234EC004F04FC005F050C006F051C052
:1011E00007F0000E086E000E096E000E0A6E4C0E1F
:1011F0000B6E9EEC0EF004C04EF005C04FF006C022
:1012000050F007C051F04EC09EF04FC09FF050C04C
:10121000A0F051C0A1F09EC0A6F09FC0A7F0A0C052
:10122000A8F0A1C0A9F042EF09F0800EA85D7F0EE2
:10123000A959D8A01EEF09F020EF09F02AEF09F014
:101240004EC04EF04FC04FF050C050F051C051F062
:101250003DEF0CF0800EA81909E13F0EA919A61167
:10126000A711D8A436EF09F038EF09F042EF09F0E2
:10127000000E4E6E000E4F6E000E506E000E516E40
:101280003DEF0CF00D0E0001A627FB0EA7234A0E22
:10129000A823000EA923810E526EFF0E536EA6C026
:1012A00054F0A7C055F0A8C056F0A9C057F0180ECA
:1012B0005FEF09F0D8905732563255325432E82E4B
:1012C0005AEF09F0525054265350552254507C275F
:1012D00055507D23FF0EA615526EFF0EA715536EB7
:1012E0007F0EA815546E000EA915556EF30E5224EC
:1012F000A66F040E5320A76F350E5420A86F3F0E23
:101300005520A96FA6C09EF0A7C09FF0A8C0A0F06E
:10131000A9C0A1F09EC04EF09FC04FF0A0C050F0F9
:10132000A1C051F04EC01DF04FC01EF050C01FF0C4
:1013300051C020F0000E216E000E226E800E236E32
:10134000BF0E246E3EEC0CF01DC0A2F01EC0A3F038
:101350001FC0A4F020C0A5F0A2C035F0A3C036F095
:10136000A4C037F0A5C038F0000E216E000E226E2A
:10137000000E236E400E246EA2C01DF0A3C01EF00E
:10138000A4C01FF0A5C020F03EEC0CF01DC039F049
:101390001EC03AF01FC03BF020C03CF0A6EC12F09B
:1013A00035C08AF036C08BF037C08CF038C08DF075
:1013B0008AC004F08BC005F08CC006F08DC007F029
:1013C0008AC008F08BC009F08CC00AF08DC00BF009
:1013D0009EEC0EF004C08EF005C08FF006C090F0B9
:1013E00007C091F08EC004F08FC005F090C006F0E9
:1013F00091C007F08EC008F08FC009F090C00AF0CD
:1014000091C00BF09EEC0EF004C092F005C093F07A
:1014100006C094F007C095F0130E216ECE0E226E1A
:10142000CC0E236E3E0E246E260E086E9E0E096EA6
:10143000780E0A6E3E0E0B6E92C004F093C005F05B
:1014400094C006F095C007F09EEC0EF004C01DF0AD
:1014500005C01EF006C01FF007C020F03EEC0CF0E7
:101460001DC096F01EC097F01FC098F020C099F0E4
:1014700096C004F097C005F098C006F099C007F038
:1014800092C008F093C009F094C00AF095C00BF028
:101490009EEC0EF004C064F005C065F006C066F076
:1014A00007C067F0AA0E216EAA0E226E2A0E236EC6
:1014B0003F0E246EEE0E086EE90E096E910E0A6E56
:1014C0003E0E0B6E92C004F093C005F094C006F07F
:1014D00095C007F09EEC0EF004C01DF005C01EF094
:1014E00006C01FF007C020F03EEC0CF01DC096F0C7
:1014F0001EC097F01FC098F020C099F096C004F06D
:1015000097C005F098C006F099C007F08EC008F0AB
:101510008FC009F090C00AF091C00BF09EEC0EF065
:1015200004C068F005C069F006C06AF007C06BF03F
:1015300068C01DF069C01EF06AC01FF06BC020F0CB
:1015400064C021F065C022F066C023F067C024F0BB
:101550003EEC0CF01DC060F01EC061F01FC062F0D8
:1015600020C063F0000E086E000E096E000E0A6EB9
:101570003F0E0B6EA2C004F0A3C005F0A4C006F09D
:10158000A5C007F09EEC0EF004C096F005C097F0E1
:1015900006C098F007C099F096C004F097C005F017
:1015A00098C006F099C007F0A2C008F0A3C009F0E7
:1015B000A4C00AF0A5C00BF09EEC0EF004C086F0AB
:1015C00005C087F006C088F007C089F0A2C02DF0E2
:1015D000A3C02EF0A4C02FF0A5C030F086C031F01B
:1015E00087C032F088C033F089C034F06FEC1BF054
:1015F0002DC09AF02EC09BF02FC09CF030C09DF003
:101600009AC09EF09BC09FF09CC0A0F09DC0A1F02E
:10161000000E00019E17F00E9F17FF0EA017FF0E81
:10162000A1179EC09AF09FC09BF0A0C09CF0A1C0E3
:101630009DF09AC031F09BC032F09CC033F09DC049
:1016400034F0A2C02DF0A3C02EF0A4C02FF0A5C08E
:1016500030F06FEC1BF02DC06CF02EC06DF02FC081
:101660006EF030C06FF086C031F087C032F088C0B5
:1016700033F089C034F06CC02DF06DC02EF06EC018
:101680002FF06FC030F06FEC1BF02DC070F02EC04B
:1016900071F02FC072F030C073F08AC008F08BC0B8
:1016A00009F08CC00AF08DC00BF060C021F061C061
:1016B00022F062C023F063C024F086C01DF087C012
:1016C0001EF088C01FF089C020F03EEC0CF01DC059
:1016D00004F01EC005F01FC006F020C007F09EEC0D
:1016E0000EF004C082F005C083F006C084F007C08D
:1016F00085F070C01DF071C01EF072C01FF073C085
:1017000020F082C021F083C022F084C023F085C085
:1017100024F03EEC0CF01DC07EF01EC07FF01FC018
:1017200080F020C081F0D40E086E9A0E096E380E3B
:101730000A6EB90E0B6E9AC021F09BC022F09CC0BD
:1017400023F09DC024F07EC01DF07FC01EF080C03D
:101750001FF081C020F03EEC0CF01DC004F01EC054
:1017600005F01FC006F020C007F09EEC0EF004C08C
:1017700074F005C075F006C076F007C077F0000E73
:10178000086EB00E096EB80E0A6E3F0E0B6E7EC06C
:1017900004F07FC005F080C006F081C007F09EEC29
:1017A0000EF004C021F005C022F006C023F007C0EF
:1017B00024F074C01DF075C01EF076C01FF077C015
:1017C00020F03EEC0CF01DC078F01EC079F01FC078
:1017D0007AF020C07BF0000E086EB00E096EB80ED5
:1017E0000A6E3F0E0B6E9AC004F09BC005F09CC0C1
:1017F00006F09DC007F09EEC0EF004C021F005C07D
:1018000022F006C023F007C024F078C01DF079C094
:101810001EF07AC01FF07BC020F03EEC0CF01DC023
:1018200082F01EC083F01FC084F020C085F082C00B
:101830001DF083C01EF084C01FF085C020F07CC066
:1018400004F07DC005F0000E05BEFF0E066E076EAB
:10185000010E1BEC18F004C021F005C022F006C0F8
:1018600023F007C024F03EEC0CF01DC04EF01EC06B
:101870004FF01FC050F020C051F012002050800BDC
:10188000296E205020242B6E1FAE49EF0CF04BEF39
:101890000CF04CEF0CF02B802B50D8B452EF0CF026
:1018A00054EF0CF069EF0CF02B28D8A45AEF0CF091
:1018B0005CEF0CF064EF0CF0000E1D6E000E1E6E5F
:1018C000000E1F6E000E206E1F8E000E206E71EF38
:1018D0000CF0000E1D6E000E1E6E000E1F6E000E30
:1018E000206E2450800B2A6E29502A18D8B47BEF22
:1018F0000CF07DEF0CF07EEF0CF0298C24502424AA
:101900002A6E23AE86EF0CF088EF0CF089EF0CF016
:101910002A802A50D8B48FEF0CF091EF0CF0A6EF8C
:101920000CF02A28D8A497EF0CF099EF0CF0A1EF57
:101930000CF0000E216E000E226E000E236E000EC3
:10194000246E238E000E246EAEEF0CF0000E216E7E
:10195000000E226E000E236E000E246E2B502A5CA9
:10196000D8B0B5EF0CF0B7EF0CF0DEEF0CF029AC0F
:10197000BCEF0CF0BEEF0CF0C0EF0CF0800E291A9B
:101980002BC02CF02AC02BF02CC02AF01DC02CF04C
:1019900021C01DF02CC021F01EC02CF022C01EF072
:1019A0002CC022F01FC02CF023C01FF02CC023F04D
:1019B00020C02CF024C020F02CC024F0000E2C6E8F
:1019C0002B502AC025F0266A255E000E265A26BE18
:1019D000F3EF0CF0265009E11A0E255CD8A0F3EFC6
:1019E0000CF0F5EF0CF02CEF0DF01D501E101F1039
:1019F0002010D8A4FEEF0CF001EF0DF0010E02EF65
:101A00000DF0000E2C6E000E1D6E000E1E6E000EF0
:101A10001F6E000E206E2AC02BF035EF0DF02CA0AB
:101A200014EF0DF016EF0DF01CEF0DF0D8902C30E8
:101A300001092C6E1EEF0DF0D8902C321DA023EF63
:101A40000DF025EF0DF026EF0DF02C8E2034203216
:101A50001F321E321D322B2A2A502B5CD8A033EFA6
:101A60000DF035EF0DF00FEF0DF029BC3AEF0DF052
:101A70003CEF0DF07CEF0DF02B50D8A442EF0DF0B1
:101A800044EF0DF04EEF0DF0000E1D6E000E1E6EB9
:101A9000000E1F6E000E206E9DEF0EF021501D26D1
:101AA00022501E2223501F222450202220A05BEF10
:101AB0000DF05DEF0DF009EF0EF02CA062EF0DF0D0
:101AC00064EF0DF06AEF0DF0D8902C3001092C6E08
:101AD0006CEF0DF0D8902C321DA071EF0DF073EF6C
:101AE0000DF074EF0DF02C8E203420321F321E3298
:101AF0001D322B2A09EF0EF021501D5C22501E587A
:101B000023501F582050800A256E2450800A2558E3
:101B1000D8B08DEF0DF08FEF0DF0BAEF0DF01D5036
:101B2000215C256E1E502258266E1F502358276EAA
:101B300020502458286EFF0E25241D6EFF0E2620EF
:101B40001E6EFF0E27201F6EFF0E2820206E800EB7
:101B5000291A2C6C2C50D8A4B0EF0DF0B2EF0DF078
:101B6000C2EF0DF0010E1D26000E1E221F222022A4
:101B7000C2EF0DF021501D5E22501E5A23501F5AF5
:101B80002450205A1D501E101F102010D8A4CBEF37
:101B90000DF0CDEF0DF002EF0EF02C50D8A4D3EFE6
:101BA0000DF0D5EF0DF002EF0EF0000E1D6E000EE1
:101BB0001E6E000E1F6E000E206E9DEF0EF0D89070
:101BC0001D361E361F3620362CAEE9EF0DF0EBEF3A
:101BD0000DF0ECEF0DF01D802CA0F1EF0DF0F3EF08
:101BE0000DF0F7EF0DF0D8802C36F9EF0DF0D8900E
:101BF0002C362B50D8B4FFEF0DF001EF0EF002EFB2
:101C00000EF02B061FAE07EF0EF009EF0EF0DFEF20
:101C10000DF0000E2A6E2CAE10EF0EF012EF0EF04B
:101C20002AEF0EF02CC025F07F0E2516D8B41BEF3E
:101C30000EF01DEF0EF021EF0EF0010E2A6E2AEFCE
:101C40000EF01DA026EF0EF028EF0EF02AEF0EF09A
:101C50001DEF0EF02A50D8B430EF0EF032EF0EF038
:101C60005DEF0EF0010E1D26000E1E221F22202207
:101C700020A03DEF0EF03FEF0EF05DEF0EF01DC027
:101C800025F01EC026F01FC027F020C028F0283401
:101C9000283227322632253225C01DF026C01EF0FC
:101CA00027C01FF028C020F02B28D8B45AEF0EF020
:101CB0005CEF0EF05DEF0EF02B2A2B28D8B463EF0B
:101CC0000EF065EF0EF06DEF0EF02B50D8A46BEF19
:101CD0000EF06DEF0EF07FEF0EF0000E1D6E000E99
:101CE0001E6E000E1F6E000E206E2B50D8A47BEFD0
:101CF0000EF07DEF0EF07FEF0EF0000E296E2BA0A0
:101D000084EF0EF086EF0EF089EF0EF01F8E8AEF53
:101D10000EF01F9ED8902B30206E29AE92EF0EF061
:101D200094EF0EF095EF0EF0208E1DC01DF01EC03A
:101D30001EF01FC01FF020C020F012000750800BC3
:101D4000106E07500724166E06AEA9EF0EF0ABEF2B
:101D50000EF0ACEF0EF016801650D8B4B2EF0EF0C5
:101D6000B4EF0EF0C7EF0EF01628D8A4BAEF0EF0BD
:101D7000BCEF0EF0C4EF0EF0000E046E000E056E08
:101D8000000E066E000E076E068ECFEF0EF0000EF0
:101D9000046E000E056E000E066E000E076E0B50F0
:101DA000800B101A0B500B24156E0AAEDAEF0EF0F2
:101DB000DCEF0EF0DDEF0EF015801550D8B4E3EF38
:101DC0000EF0E5EF0EF0F8EF0EF01528D8A4EBEFCB
:101DD0000EF0EDEF0EF0F5EF0EF0000E086E000EB7
:101DE000096E000E0A6E000E0B6E0A8E00EF0FF0E9
:101DF000000E086E000E096E000E0A6E000E0B6ECD
:101E00001550D8B406EF0FF008EF0FF010EF0FF0F9
:101E10001650D8A40EEF0FF010EF0FF01AEF0FF0DE
:101E2000000E046E000E056E000E066E000E076EAC
:101E3000B2EF10F00A500402F3CF1BF0F4CF1CF005
:101E40001B50116E126A136A146A1C50176E186ABE
:101E5000196A1A6A09500502F3CF1BF0F4CF1CF07F
:101E60001B501126000E1222132214221C5017267A
:101E7000000E182219221A2208500602F3CF1BF076
:101E8000F4CF1CF01B501126000E12221322142234
:101E90001C501726000E182219221A2213C014F003
:101EA00012C013F011C012F0116A08500502F3CFEE
:101EB0001BF0F4CF1CF01B5011261C501222000EF8
:101EC0001322000E142209500402F3CF1BF0F4CFAA
:101ED0001CF01B5011261C501222000E1322000E63
:101EE000142213C014F012C013F011C012F0116AC2
:101EF00008500402F3CF1BF0F4CF1CF01B50112646
:101F00001C501222000E1322000E14220A50050249
:101F1000F3CF1BF0F4CF1CF01B5017261C501822D7
:101F2000000E1922000E1A2209500602F3CF1BF0F0
:101F3000F4CF1CF01B5017261C501822000E19223B
:101F4000000E1A220A500602F3CF1BF0F4CF1CF049
:101F50001B500C6E1C500D6E0E6A0F6A0EC00FF0F7
:101F60000DC00EF00CC00DF00C6A0C5017260D5071
:101F700018220E5019220F501A2211C00CF012C054
:101F80000DF013C00EF014C00FF0190ECDEF0FF0CE
:101F9000D8900F320E320D320C32E82EC8EF0FF00F
:101FA0000C5017260D5018220E5019220F501A22CD
:101FB00013C014F012C013F011C012F0116A1550C2
:101FC00016C00CF00D6A0C26000E0D22820E0C2499
:101FD0001B6EFF0E0D201C6E03EF10F0D89017360D
:101FE000183619361A3614AEF8EF0FF0FAEF0FF074
:101FF000FBEF0FF01780D8901136123613361436D7
:102000001B06D8A01C0619AE08EF10F00AEF10F05E
:10201000EEEF0FF0000E156E14AE11EF10F013EF8F
:1020200010F037EF10F0FF0E11140C6EFF0E1214AB
:102030000D6EFF0E13140E6E7F0E14140F6E0C50E7
:102040000D100E100F10D8B428EF10F02AEF10F07A
:102050002EEF10F0010E156E37EF10F017A033EFD2
:1020600010F035EF10F037EF10F02AEF10F01550A8
:10207000D8B43DEF10F03FEF10F063EF10F0010E19
:102080001726000E182219221A221AA04AEF10F061
:102090004CEF10F063EF10F017C00CF018C00DF00B
:1020A00019C00EF01AC00FF00F340F320E320D327D
:1020B0000C320CC017F00DC018F00EC019F00FC094
:1020C0001AF01B4A1C2A1CBE6EEF10F01C5008E1CF
:1020D0001B28D8A06EEF10F070EF10F07AEF10F020
:1020E000000E176E000E186E800E196E7F0E1A6E9F
:1020F000A8EF10F01CBE87EF10F01C5006E11B0487
:10210000D8B085EF10F087EF10F093EF10F0000ECD
:10211000176E000E186E000E196E000E1A6E000E6D
:10212000106EA8EF10F01BC016F0FF0E1716FF0E72
:1021300018167F0E1916000E1A1616A0A2EF10F030
:10214000A4EF10F0A5EF10F0198ED89016301A6E8B
:1021500010501A1217C004F018C005F019C006F08C
:102160001AC007F012008950010B0101A76FA739AF
:10217000F00BA76F8A50010BA86FA839E842F80B43
:10218000A86F8B50010BA96FA945E846FC0BA96FFE
:102190008C50010BAA6FAA51AA25AA6FD6C09FF135
:1021A000D7C0A0F1D8909F37A037D8909F37A037DD
:1021B000D8909F37A037F80E9F25D96E000EA0212A
:1021C000DA6EA751A825A925AA25DF6E8950020B32
:1021D000A76FA739E842F80BA76F8A50020BA86FC8
:1021E000A845E846FC0BA86F8B50020BA96FA951BC
:1021F000A925A96F8C50020BAA6FD6C09FF1D7C03A
:10220000A0F1D8909F37A037D8909F37A037D890AB
:102210009F37A037F90E9F25D96E000EA021DA6EE8
:10222000A751A825A925AA25DF6E8950040BA76F01
:10223000A745E846FC0BA76F8A50040BA86FA8516E
:10224000A825A86F8B50040BA96F8C50040BAA6FA4
:10225000D890AA31AA6FD6C09FF1D7C0A0F1D8906C
:102260009F37A037D8909F37A037D8909F37A03797
:10227000FA0E9F25D96E000EA021DA6EA751A8256F
:10228000A925AA25DF6E8950080BA76FA751A7259E
:10229000A76F8A50080BA86F8B50080BA96FD890B6
:1022A000A931A96F8C50080BAA6FAA41E8423F0BD5
:1022B000AA6FD6C09FF1D7C0A0F1D8909F37A037A2
:1022C000D8909F37A037D8909F37A037FB0E9F2517
:1022D000D96E000EA021DA6EA751A825A925AA253E
:1022E000DF6E8950100BA76F8A50100BA86FD89023
:1022F000A831A86F8B50100BA96FA941E8423F0B82
:10230000A96F8C50100BAA6FAA39E8461F0BAA6F51
:10231000D6C09FF1D7C0A0F1D8909F37A037D890F2
:102320009F37A037D8909F37A037FC0E9F25D96ED6
:10233000000EA021DA6EA751A825A925AA25DF6ED7
:102340008950200BA76FD890A731A76F8A50200B18
:10235000A86FA841E8423F0BA86F8B50200BA96FD4
:10236000A939E8461F0BA96F8C50200BAA6FAA3918
:102370000F0BAA6FD6C09FF1D7C0A0F1D8909F379E
:10238000A037D8909F37A037D8909F37A037FD0E41
:102390009F25D96E000EA021DA6EA751A825A92588
:1023A000AA25DF6E8950400BA76FA741E8423F0B7B
:1023B000A76F8A50400BA86FA839E8461F0BA86F7B
:1023C0008B50400BA96FA9390F0BA96F8C50400B94
:1023D000AA6FAA39E842070BAA6FD6C09FF1D7C0EF
:1023E000A0F1D8909F37A037D8909F37A037D890CA
:1023F0009F37A037FE0E9F25D96E000EA021DA6E02
:10240000A751A825A925AA25DF6E8950800BA76FA3
:10241000A739E8461F0BA76F8A50800BA86FA83911
:102420000F0BA86F8B50800BA96FA939E842070BDF
:10243000A96F8C50800BAA6FAA45E846030BAA6FC0
:10244000D6C09FF1D7C0A0F1D8909F37A037D890C1
:102450009F37A037D8909F37A037FF0E9F25D96EA2
:10246000000EA021DA6EA751A825A925AA25DF6EA6
:1024700081940001D651080DF350380FB1EC1BF0D8
:10248000000E0101A66F000EA56F8184D6C09FF1DA
:10249000D7C0A0F1D8909F37A037D8909F37A037EA
:1024A000D8909F37A037F80EA16FFF0EA26F000ED5
:1024B000A36F010EA46FA151A327A251A4239F5182
:1024C000A327A051A423A551A325D96EA651A421C9
:1024D000DA6EDF50B1EC1BF00101A54BA62BA6BFB5
:1024E0007BEF12F0A65109E1080EA55DD8A07BEFA5
:1024F00012F07DEF12F045EF12F081947251800FCF
:10250000B1EC1BF081840001D605B1EC1BF0FF0E8D
:1025100001019F6FFF0EA06FD6C0A1F1D7C0A2F13D
:102520009F51A127A051A223D8907235D96E73353F
:10253000DA6E400ED926010EDA22A1C1DEFFA2C159
:10254000DDFF8194100EB1EC1BF012003850800BAF
:10255000456E385038244C6E37AEB1EF12F0B3EF01
:1025600012F0B4EF12F04C804C50D8B4BAEF12F025
:10257000BCEF12F0D1EF12F04C28D8A4C2EF12F049
:10258000C4EF12F0CCEF12F0000E356E000E366E76
:10259000000E376E000E386E378E000E386ED9EF93
:1025A00012F0000E356E000E366E000E376E000E05
:1025B000386E3C50800B451A3C503C244D6E3BAE6F
:1025C000E4EF12F0E6EF12F0E7EF12F04D804D501D
:1025D000D8B4EDEF12F0EFEF12F004EF13F04D2846
:1025E000D8A4F5EF12F0F7EF12F0FFEF12F0000EA3
:1025F000396E000E3A6E000E3B6E000E3C6E3B8E46
:10260000000E3C6E0CEF13F0000E396E000E3A6EA9
:10261000000E3B6E000E3C6E39503A103B103C10E1
:10262000D8A415EF13F017EF13F02FEF13F0000EEF
:10263000356E000E366E000E376E000E386E800E50
:1026400037127F0E38124550381235C035F036C07B
:1026500036F037C037F038C038F072EF14F04C5015
:10266000D8A435EF13F037EF13F041EF13F0000E5D
:10267000356E000E366E000E376E000E386E72EF3D
:1026800014F04D504CC03DF03E6A3D5E000E3E5A87
:102690007F0E3D24466E000E3E20476E35C041F051
:1026A00036C042F037C043F038C044F0000E356EFB
:1026B000000E366E000E376E000E386E000E486E3D
:1026C000000E496E000E4A6E000E4B6E000E4D6EEF
:1026D000A2EF13F04D50D8B470EF13F072EF13F077
:1026E00089EF13F0D8904136423643364436D890BD
:1026F00035363636373638364BAE81EF13F083EF4A
:1027000013F084EF13F03580D890483649364A36B6
:102710004B363950415C3A5042583B5043583C503C
:102720004458D8A096EF13F098EF13F0A1EF13F0F0
:102730004B8C3950415E3A50425A3B50435A3C50C0
:10274000445A4D2A190E4D64A8EF13F0AAEF13F066
:102750006AEF13F04150421043104410D8B4B3EF65
:1027600013F0B5EF13F0CDEF13F04880CDEF13F079
:10277000D89035363636373638364BAEC2EF13F092
:10278000C4EF13F0C5EF13F03580D89048364936C2
:102790004A364B364606D8A0470637AED2EF13F07E
:1027A000D4EF13F0B8EF13F0000E4D6E4BAEDBEF2D
:1027B00013F0DDEF13F001EF14F0FF0E48143D6E3F
:1027C000FF0E49143E6EFF0E4A143F6E7F0E4B14EF
:1027D000406E3D503E103F104010D8B4F2EF13F061
:1027E000F4EF13F0F8EF13F0010E4D6E01EF14F05B
:1027F00035A0FDEF13F0FFEF13F001EF14F0F4EF4D
:1028000013F04D50D8B407EF14F009EF14F02DEF8A
:1028100014F0010E3526000E36223722382238A059
:1028200014EF14F016EF14F02DEF14F035C03DF056
:1028300036C03EF037C03FF038C040F04034403240
:102840003F323E323D323DC035F03EC036F03FC0F3
:1028500037F040C038F0464A472A47BE38EF14F0F8
:10286000475008E14628D8A038EF14F03AEF14F0AA
:1028700045EF14F0000E476E4668000E356E000EF0
:10288000366E000E376E000E386E47BE52EF14F0F3
:10289000475006E14604D8B050EF14F052EF14F060
:1028A00060EF14F0000E476E000E466E000E356E9F
:1028B000000E366E000E376E000E386E000E456E3E
:1028C00046C04CF04CA067EF14F069EF14F06CEFC9
:1028D00014F0378E6DEF14F0379ED8904C30386E70
:1028E00023EF13F01200000E0101B16F000EB06F64
:1028F000000EB36F000EB26F000E8C6EC28284A801
:1029000084EF14F086EF14F09AEF14F0080E000133
:10291000D619D711D8B48FEF14F091EF14F09AEFC5
:1029200014F084B896EF14F098EF14F091EF14F0CF
:10293000D9EC15F084AA9FEF14F0A1EF14F0AAEFE0
:1029400014F084BAA6EF14F0A8EF14F0A1EF14F07D
:102950002EEC17F084A4AFEF14F0B1EF14F0D1EF28
:1029600014F084B4B6EF14F0B8EF14F0B1EF14F033
:10297000000E0101B36F010EB26F000EB16F000EB9
:10298000B06F744B752B250E74197511D8A4CBEF4D
:1029900014F0CDEF14F0D1EF14F0000E756F000EAF
:1029A000746F84A2D6EF14F0D8EF14F0F9EF14F09E
:1029B00084B2DDEF14F0DFEF14F0D8EF14F0000E66
:1029C0000101B36F010EB26F000EB16F000EB06F58
:1029D0007407D8A07507742906E17529D8A4F3EF08
:1029E00014F0F5EF14F0F9EF14F0000E756F240EEB
:1029F000746F84A0FEEF14F000EF15F02FEF15F0C8
:102A000084B005EF15F007EF15F000EF15F0000E9C
:102A10000101B36F010EB26F000EB16F010EB06F06
:102A20009C4B9D2BFF0EAB6FFF0EAC6FD6C0ADF174
:102A3000D7C0AEF1AB51AD27AC51AE239C51AD5DCB
:102A4000AE51800AAF6F9D51800AAF59D8B02BEFBD
:102A500015F02DEF15F02FEF15F09C699D6984A6F8
:102A600034EF15F036EF15F060EF15F084B63BEF5C
:102A700015F03DEF15F036EF15F0000E0101B36FC4
:102A8000010EB26F000EB16F010EB06F9C07D8A09F
:102A90009D079DAF54EF15F09C29FF0E9D59D8B0AE
:102AA00054EF15F056EF15F060EF15F0FF0E000132
:102AB000D62501019C6FFF0E0001D72101019D6FFA
:102AC0000101B051B111D8A468EF15F06AEF15F00B
:102AD00097EF15F0B251B311D8B471EF15F073EF51
:102AE00015F097EF15F0000EB36F000EB26F8184F2
:102AF000760E7425D96E010E7521DA6EDF50B1ECB9
:102B00001BF0760E01017425D96E010E7521DA6E67
:102B1000600E7225E16E010E7321E26EDFCFE7FFDA
:102B20008194100EB1EC1BF0640EE82EFED701016B
:102B3000B051B111D8B49FEF15F0A1EF15F07CEFB3
:102B400014F0B251B311D8B4A8EF15F0AAEF15F0F4
:102B50007CEF14F0000EB36F000EB26F81849C29DD
:102B600006E19D29D8A4B7EF15F0B9EF15F0BEEF37
:102B700015F0200EB1EC1BF0C1EF15F09C51B1EC3B
:102B80001BF0D89001017235D96E7335DA6E400EA4
:102B9000D926010EDA229CC1DEFF9DC1DDFF8194A2
:102BA000100EB1EC1BF0640EE82EFED77CEF14F093
:102BB0001200000E956E000E896E000E8A6E000ED9
:102BC0008B6E000E8C6EC282010170B1EAEF15F0BF
:102BD000ECEF15F0EFEF15F08C9CF0EF15F08C8C0E
:102BE00084AAF5EF15F0F7EF15F01AEF16F084BA96
:102BF000FCEF15F0FEEF15F0F7EF15F0000E0001F9
:102C0000CF6F010ECE6F000ED96F000ED86FD64B6E
:102C1000D72BB3EC10F0000E896E000E8A6E000EFA
:102C20008B6E000E8C6E000E0101716F000E706FC6
:102C30002DEF17F084A81FEF16F021EF16F0A1EF8B
:102C400016F084B826EF16F028EF16F021EF16F0F4
:102C50000001D851D911D8A430EF16F032EF16F098
:102C600043EF16F08950CE150009D8B43AEF16F0AC
:102C70003CEF16F041EF16F0CE51FF0A891643EFF4
:102C800016F0CE518912D805D911D8A44AEF16F002
:102C90004CEF16F05DEF16F08A50CE150009D8B44F
:102CA00054EF16F056EF16F05BEF16F0CE51FF0A18
:102CB0008A165DEF16F0CE518A12020ED819D9117C
:102CC000D8A465EF16F067EF16F078EF16F08B508A
:102CD000CE150009D8B46FEF16F071EF16F076EF4D
:102CE00016F0CE51FF0A8B1678EF16F0CE518B12EC
:102CF000030ED819D911D8A480EF16F082EF16F080
:102D0000A1EF16F0400ECE19CF11D8A48AEF16F01D
:102D10008CEF16F08FEF16F00101704B712B8C5079
:102D20000001CE150009D8B498EF16F09AEF16F00E
:102D30009FEF16F0CE51FF0A8C16A1EF16F0CE5180
:102D40008C1284A4A6EF16F0A8EF16F0CDEF16F0C3
:102D500084B4ADEF16F0AFEF16F0A8EF16F0000157
:102D6000CFBFBCEF16F0CF5109E1020ECE5DD8A067
:102D7000BCEF16F0BEEF16F0CDEF16F0CEC09EF110
:102D8000CFC09FF1000E0101A16F020EA06F56ECA3
:102D90001AF09EC1CEF09FC1CFF084A2D2EF16F000
:102DA000D4EF16F0EDEF16F084B2D9EF16F0DBEFAA
:102DB00016F0D4EF16F00001CFBFEAEF16F0CF51B6
:102DC00007E1800ECE5DD8B0E8EF16F0EAEF16F01E
:102DD000EDEF16F0D890CE37CF3784A6F2EF16F08D
:102DE000F4EF16F00CEF17F084B6F9EF16F0FBEFE6
:102DF00016F0F4EF16F00001D9BF07EF17F0D95124
:102E000008E1D805D8A007EF17F009EF17F00CEF8D
:102E100017F0D807D8A0D90784A011EF17F013EF47
:102E200017F0E3EF15F084B018EF17F01AEF17F072
:102E300013EF17F00001D9BF29EF17F0D95107E1BF
:102E4000030ED85DD8B027EF17F029EF17F0E3EFA6
:102E500015F0D84BD92BE3EF15F01200000E896E58
:102E6000000E8A6E000E8B6E000E8C6E9D8C81940F
:102E70000C0EB1EC1BF0820E01019F6FDD0EE82EEF
:102E8000FED79F2FFCD700D08194010EB1EC1BF030
:102E9000820E01019F6FDD0EE82EFED79F2FFCD71B
:102EA00000D08194830EB1EC1BF08184660EB1ECEE
:102EB0001BF0690EB1EC1BF06E0EB1EC1BF0690E4D
:102EC000B1EC1BF0730EB1EC1BF0680EB1EC1BF013
:102ED000650EB1EC1BF0640EB1EC1BF08194C00EDA
:102EE000B1EC1BF08184000E0101A56F000EA46FF0
:102EF000600EA425D96E010EA521DA6E200EDE1813
:102F0000D8B485EF17F087EF17F092EF17F0600E47
:102F1000A425D96E010EA521DA6EDF50B1EC1BF0AD
:102F2000B6EF17F0D890A435D96EA535DA6E400EFD
:102F3000D926010EDA22DE2808E1DE28D8B4A3EF74
:102F400017F0A5EF17F0B3EF17F0D890A435D96EAE
:102F5000A535DA6E400ED926010EDA22DF50B1EC2B
:102F60001BF0B6EF17F0200EB1EC1BF00101A44BE3
:102F7000A52BA5BFC5EF17F0A55109E1100EA45D63
:102F8000D8A0C5EF17F0C7EF17F078EF17F060C1C2
:102F9000A3F140C1A1F141C1A2F1000EA76F000E43
:102FA000A66F610EA625D96E010EA721DA6E600EFE
:102FB000A625E16E010EA721E26EDFCFE7FFD890D4
:102FC000A635D96EA735DA6E420ED926010EDA2261
:102FD000D890A635E16EA735E26E400EE126010ECF
:102FE000E222DECFE6FFDDCFE5FFA64BA72BA7BF92
:102FF00003EF18F0A75109E10F0EA65DD8A003EF6B
:1030000018F005EF18F0D1EF17F0A3C16FF1A1C1CF
:103010005EF1A2C15FF10D0E0101A06FAF0E9F6FB7
:10302000B60EE82EFED79F2FFCD7A02FFAD700F0C0
:103030006EEF17F012000C6E0C50D8B422EF18F09F
:1030400024EF18F046EF18F007BE2BEF18F029EF29
:1030500018F046EF18F004C008F005C009F006C0EB
:103060000AF007C00BF0081E091E0A1E0B1E082AD4
:10307000000E09220A220B2208C00EF009C00FF030
:103080000AC010F00BC011F04EEF18F004C00EF0A3
:1030900005C00FF006C010F007C011F00450051075
:1030A00006100710D8A457EF18F059EF18F063EF87
:1030B00018F0000E046E000E056E000E066E000E77
:1030C000076EF4EF18F0960E0D6E6DEF18F00D2AE6
:1030D000D890113210320F320E32000E0E14086EDC
:1030E000000E0F14096E000E10140A6EFE0E11145D
:1030F0000B6E085009100A100B10D8A482EF18F0BC
:1031000084EF18F067EF18F092EF18F00D2A010E17
:103110000E26000E0F2210221122D89011321032EA
:103120000F320E32000E0E14086E000E0F14096ED0
:10313000000E10140A6EFF0E11140B6E08500910C9
:103140000A100B10D8A4A7EF18F0A9EF18F086EF1B
:1031500018F0B1EF18F00D06D8900E360F36103675
:10316000113610BEB6EF18F0B8EF18F0C0EF18F037
:10317000020E0D60BEEF18F0C0EF18F0ABEF18F0C4
:103180000DB0C5EF18F0C7EF18F0C8EF18F0109E9B
:10319000D8900D320DC008F0096A0A6A0B6A08C09F
:1031A0000BF00A6A096A086A08500E1209500F12D9
:1031B0000A5010120B5011120C50D8B4E2EF18F054
:1031C000E4EF18F0ECEF18F007BEEBEF18F0E9EFC2
:1031D00018F0ECEF18F0118E0EC004F00FC005F0DF
:1031E00010C006F011C007F012000001AC35AD357B
:1031F000596E5950D8A4FFEF18F001EF19F00BEFFA
:1032000019F0000EAA6F000EAB6F000EAC6F000E2F
:10321000AD6F78EF19F0AAC0AEF0ABC0AFF0ACC0A4
:10322000B0F0ADC0B1F0200E1BEF19F0D890B13363
:10323000B033AF33AE33E82E16EF19F0AE51586EFF
:10324000AC8FFF0EAA17FF0EAB17FF0EAC17000EC8
:10325000AD17960E595E59BE32EF19F030EF19F0E6
:1032600048EF19F05950800A970FD8B03AEF19F08B
:103270003CEF19F03EEF19F001EF19F0D890AD33A3
:10328000AC33AB33AA33593E3EEF19F060EF19F07F
:103290001F0E59644EEF19F050EF19F058EF19F066
:1032A00001EF19F0D890AA37AB37AC37AD375906D4
:1032B0005950D8A45EEF19F060EF19F052EF19F0F1
:1032C0005850D8B466EF19F068EF19F070EF19F0A4
:1032D000AD1FAC1FAB1FAA6D000EAB23AC23AD23FB
:1032E000AAC0AAF0ABC0ABF0ACC0ACF0ADC0ADF0C2
:1032F000120006009EAC7FEF19F081EF19F0E8EFA5
:1033000019F0C2B286EF19F088EF19F0E8EF19F062
:103310009E9CC450036E026AC35002240101726F66
:10332000000E0320736F060E026ED8907333723353
:10333000022E95EF19F072515A5C73515B58D8B058
:10334000A4EF19F0A6EF19F0C1EF19F0000E756F98
:10335000000E746F9C699D69B4EF19F08194140E8E
:10336000C9EC1BF05A4A5B2A010172515A1807E155
:1033700073515B18D8A4BFEF19F0C1EF19F0AEEF8D
:1033800019F05A50725D5B507359D8B0CAEF19F0FA
:10339000CCEF19F0E8EF19F0000E756F000E746FA6
:1033A0009C699D69DBEF19F08194100EC9EC1BF04C
:1033B0005A06D8A05B06010172515A1807E17351F1
:1033C0005B18D8A4E6EF19F0E8EF19F0D4EF19F084
:1033D0005C9211009E90010E906EBE0E0001D625EB
:1033E000D96E000ED721DA6EDF50916E0D0E0001FE
:1033F000B26FFB0EE82EFED7B22FFCD700D0000E26
:10340000916E040E906EBE0E0001D825D96E000E8E
:10341000D921DA6EDF50916E0D0E0001B26FFB0EF6
:10342000E82EFED7B22FFCD700D0000E916E080E0A
:10343000906ECEC004F0CFC005F0000E05BEFF0EAA
:10344000066E076E010E1BEC18F004C0B3F005C049
:10345000B4F006C0B5F007C0B6F0B3C04EF0B4C0CB
:103460004FF0B5C050F0B6C051F00DEC08F04EC0B2
:10347000AAF04FC0ABF050C0ACF051C0ADF0F5ECCD
:1034800018F0BE0E0001AA25D96E000EAB21DA6E2F
:10349000DF50916E0D0E0001B26FFB0EE82EFED7CD
:1034A000B22FFCD700D0000E916E1200000E010169
:1034B000A36FA1BF60EF1AF05EEF1AF066EF1AF08B
:1034C000A06DA11FD8B0A12B010EA36F9FBF6DEF00
:1034D0001AF06BEF1AF073EF1AF09E6D9F1FD8B0C1
:1034E0009F2B010EA31B000EA56F000EA46FA05111
:1034F000A111D8B47EEF1AF080EF1AF0A8EF1AF0FD
:10350000010EA26F88EF1AF0D890A037A137A22B36
:10351000A1AF8DEF1AF08FEF1AF084EF1AF0D89068
:10352000A437A537A0519E5DA1519F59D8A09BEF0C
:103530001AF09DEF1AF0A2EF1AF0A0519E5FA15170
:103540009F5BA481D890A133A033A22F8FEF1AF0F4
:10355000A351D8B4AEEF1AF0B0EF1AF0B4EF1AF0EE
:10356000A46DA51FD8B0A52BA4C19EF1A5C19FF144
:103570001200020E0101A06F040E9F6FBA0EE82E1A
:10358000FED79F2FFCD7A02FFAD700F0300E836E06
:103590000CEC1CF04E0E01019F6FEB0EE82EFED7D7
:1035A0009F2FFCD7300E836E0CEC1CF0040E010133
:1035B0009F6FE40EE82EFED79F2FFCD700F0300E51
:1035C000836E0CEC1CF01A0E01019F6FF80EE82EB2
:1035D000FED79F2FFCD700F0200E836E0CEC1CF062
:1035E00081942C0EB1EC1BF00E0EB1EC1BF0010E11
:1035F000B1EC1BF0120092EC1BF0000E0101B56F54
:10360000000EB46F600EB425D96E010EB521DA6ECE
:10361000200EDF6ED890B435D96EB535DA6E400E17
:10362000D926010EDA22FF0EDE6EFF0EDD6EB44BE0
:10363000B52BB5BF25EF1BF0B55109E1100EB45DF8
:10364000D8A025EF1BF027EF1BF002EF1BF09E9C8C
:103650009D8CF28CF28EF28C9F8C9F90D08EF28E8D
:10366000F28C9D8073EC14F032EF1BF034EF00F01D
:10367000BC0EF66E370EF76E000EF86E01EE76F0A9
:1036800010EE28F00900F5CFEEFFE550E150FAE129
:10369000060EF66E380EF76E000EF86E00EEBEF0F7
:1036A00010EE12F00900F5CFEEFFE550E150FAE11F
:1036B00001EE00F0760EEE6AE806FDE100EED0F0D5
:1036C0000A0EEE6AE806FDE15B6A5A6A5C905C925B
:1036D000000EF86E100EF76E0001FBEF1AF0000EF0
:1036E000311A000E321A000E331A800E341A2DC011
:1036F0001DF02EC01EF02FC01FF030C020F031C0D2
:1037000021F032C022F033C023F034C024F03EEC6C
:103710000CF01DC02DF01EC02EF01FC02FF020C0D9
:1037200030F012001EEC1CF0F2EC1BF0B9EC1AF0B9
:10373000000E9A6ECF68FA0ECE6E9668000E8D6EF1
:10374000000E926E000E896E000E936E000E8A6E51
:10375000000E946E000E8B6E000E956E000E8C6E39
:10376000120001019E6F83500F0B836E01019E5169
:10377000F00B8310836E0CEC1CF083500F0B836EE8
:1037800001019E39F00BF00B8310836E0CEC1CF0E2
:103790001200016E83500F0B836E0150F00B8310EB
:1037A000836E15EC1CF083500F0B836E0138F00B09
:1037B000F00B8310836E15EC1CF012002061626325
:1037C0006465666768696A6B6C6D6E6F7071727341
:1037D0007475767778797A303132333435363738D4
:1037E0003900FFFF100E996E000E936E000E956E5D
:1037F000310EC26E000EC16EAA0EC06E000EC46EF7
:10380000000EC36E12003F065B4F666D7D077F6F33
:10381000777C585E79710100818A640EE82EFED7AC
:10382000819A640EE82EFED71200818A640EE82E7B
:10383000FED7819A640EE82EFED71200750ECF6E69
:0A384000300ECE6EC90ECD6E1200E0
:020000040020DA
:08000000FFFFFFFFFFFFFFFF00
:020000040030CA
:0E000000FF06191EF38301FFFFC0FFE0FF4063
:00000001FF
